{
  "contractName": "NFT721",
  "abi": [
    {
      "inputs": [],
      "stateMutability": "nonpayable",
      "type": "constructor"
    },
    {
      "anonymous": false,
      "inputs": [
        {
          "indexed": true,
          "internalType": "address",
          "name": "owner",
          "type": "address"
        },
        {
          "indexed": true,
          "internalType": "address",
          "name": "approved",
          "type": "address"
        },
        {
          "indexed": true,
          "internalType": "uint256",
          "name": "tokenId",
          "type": "uint256"
        }
      ],
      "name": "Approval",
      "type": "event"
    },
    {
      "anonymous": false,
      "inputs": [
        {
          "indexed": true,
          "internalType": "address",
          "name": "owner",
          "type": "address"
        },
        {
          "indexed": true,
          "internalType": "address",
          "name": "operator",
          "type": "address"
        },
        {
          "indexed": false,
          "internalType": "bool",
          "name": "approved",
          "type": "bool"
        }
      ],
      "name": "ApprovalForAll",
      "type": "event"
    },
    {
      "anonymous": false,
      "inputs": [
        {
          "indexed": true,
          "internalType": "address",
          "name": "previousOwner",
          "type": "address"
        },
        {
          "indexed": true,
          "internalType": "address",
          "name": "newOwner",
          "type": "address"
        }
      ],
      "name": "OwnershipTransferred",
      "type": "event"
    },
    {
      "anonymous": false,
      "inputs": [
        {
          "indexed": true,
          "internalType": "address",
          "name": "from",
          "type": "address"
        },
        {
          "indexed": true,
          "internalType": "address",
          "name": "to",
          "type": "address"
        },
        {
          "indexed": true,
          "internalType": "uint256",
          "name": "tokenId",
          "type": "uint256"
        }
      ],
      "name": "Transfer",
      "type": "event"
    },
    {
      "inputs": [
        {
          "internalType": "address",
          "name": "to",
          "type": "address"
        },
        {
          "internalType": "uint256",
          "name": "tokenId",
          "type": "uint256"
        }
      ],
      "name": "approve",
      "outputs": [],
      "stateMutability": "nonpayable",
      "type": "function"
    },
    {
      "inputs": [
        {
          "internalType": "address",
          "name": "owner",
          "type": "address"
        }
      ],
      "name": "balanceOf",
      "outputs": [
        {
          "internalType": "uint256",
          "name": "",
          "type": "uint256"
        }
      ],
      "stateMutability": "view",
      "type": "function",
      "constant": true
    },
    {
      "inputs": [],
      "name": "baseURI",
      "outputs": [
        {
          "internalType": "string",
          "name": "",
          "type": "string"
        }
      ],
      "stateMutability": "view",
      "type": "function",
      "constant": true
    },
    {
      "inputs": [
        {
          "internalType": "uint256",
          "name": "tokenId",
          "type": "uint256"
        }
      ],
      "name": "getApproved",
      "outputs": [
        {
          "internalType": "address",
          "name": "",
          "type": "address"
        }
      ],
      "stateMutability": "view",
      "type": "function",
      "constant": true
    },
    {
      "inputs": [
        {
          "internalType": "address",
          "name": "owner",
          "type": "address"
        },
        {
          "internalType": "address",
          "name": "operator",
          "type": "address"
        }
      ],
      "name": "isApprovedForAll",
      "outputs": [
        {
          "internalType": "bool",
          "name": "",
          "type": "bool"
        }
      ],
      "stateMutability": "view",
      "type": "function",
      "constant": true
    },
    {
      "inputs": [],
      "name": "lasttokenId",
      "outputs": [
        {
          "internalType": "uint256",
          "name": "",
          "type": "uint256"
        }
      ],
      "stateMutability": "view",
      "type": "function",
      "constant": true
    },
    {
      "inputs": [],
      "name": "name",
      "outputs": [
        {
          "internalType": "string",
          "name": "",
          "type": "string"
        }
      ],
      "stateMutability": "view",
      "type": "function",
      "constant": true
    },
    {
      "inputs": [],
      "name": "owner",
      "outputs": [
        {
          "internalType": "address",
          "name": "",
          "type": "address"
        }
      ],
      "stateMutability": "view",
      "type": "function",
      "constant": true
    },
    {
      "inputs": [
        {
          "internalType": "uint256",
          "name": "tokenId",
          "type": "uint256"
        }
      ],
      "name": "ownerOf",
      "outputs": [
        {
          "internalType": "address",
          "name": "",
          "type": "address"
        }
      ],
      "stateMutability": "view",
      "type": "function",
      "constant": true
    },
    {
      "inputs": [],
      "name": "renounceOwnership",
      "outputs": [],
      "stateMutability": "nonpayable",
      "type": "function"
    },
    {
      "inputs": [
        {
          "internalType": "address",
          "name": "from",
          "type": "address"
        },
        {
          "internalType": "address",
          "name": "to",
          "type": "address"
        },
        {
          "internalType": "uint256",
          "name": "tokenId",
          "type": "uint256"
        }
      ],
      "name": "safeTransferFrom",
      "outputs": [],
      "stateMutability": "nonpayable",
      "type": "function"
    },
    {
      "inputs": [
        {
          "internalType": "address",
          "name": "from",
          "type": "address"
        },
        {
          "internalType": "address",
          "name": "to",
          "type": "address"
        },
        {
          "internalType": "uint256",
          "name": "tokenId",
          "type": "uint256"
        },
        {
          "internalType": "bytes",
          "name": "_data",
          "type": "bytes"
        }
      ],
      "name": "safeTransferFrom",
      "outputs": [],
      "stateMutability": "nonpayable",
      "type": "function"
    },
    {
      "inputs": [
        {
          "internalType": "address",
          "name": "operator",
          "type": "address"
        },
        {
          "internalType": "bool",
          "name": "approved",
          "type": "bool"
        }
      ],
      "name": "setApprovalForAll",
      "outputs": [],
      "stateMutability": "nonpayable",
      "type": "function"
    },
    {
      "inputs": [
        {
          "internalType": "bytes4",
          "name": "interfaceId",
          "type": "bytes4"
        }
      ],
      "name": "supportsInterface",
      "outputs": [
        {
          "internalType": "bool",
          "name": "",
          "type": "bool"
        }
      ],
      "stateMutability": "view",
      "type": "function",
      "constant": true
    },
    {
      "inputs": [],
      "name": "symbol",
      "outputs": [
        {
          "internalType": "string",
          "name": "",
          "type": "string"
        }
      ],
      "stateMutability": "view",
      "type": "function",
      "constant": true
    },
    {
      "inputs": [
        {
          "internalType": "uint256",
          "name": "tokenId",
          "type": "uint256"
        }
      ],
      "name": "tokenURI",
      "outputs": [
        {
          "internalType": "string",
          "name": "",
          "type": "string"
        }
      ],
      "stateMutability": "view",
      "type": "function",
      "constant": true
    },
    {
      "inputs": [
        {
          "internalType": "address",
          "name": "from",
          "type": "address"
        },
        {
          "internalType": "address",
          "name": "to",
          "type": "address"
        },
        {
          "internalType": "uint256",
          "name": "tokenId",
          "type": "uint256"
        }
      ],
      "name": "transferFrom",
      "outputs": [],
      "stateMutability": "nonpayable",
      "type": "function"
    },
    {
      "inputs": [
        {
          "internalType": "address",
          "name": "newOwner",
          "type": "address"
        }
      ],
      "name": "transferOwnership",
      "outputs": [],
      "stateMutability": "nonpayable",
      "type": "function"
    },
    {
      "inputs": [
        {
          "internalType": "string",
          "name": "newbaseURI",
          "type": "string"
        }
      ],
      "name": "setbaseURI",
      "outputs": [],
      "stateMutability": "nonpayable",
      "type": "function"
    },
    {
      "inputs": [
        {
          "internalType": "uint256",
          "name": "_tokenId",
          "type": "uint256"
        }
      ],
      "name": "Burn",
      "outputs": [],
      "stateMutability": "nonpayable",
      "type": "function"
    },
    {
      "inputs": [
        {
          "internalType": "uint256",
          "name": "quantity",
          "type": "uint256"
        }
      ],
      "name": "Mint",
      "outputs": [],
      "stateMutability": "nonpayable",
      "type": "function"
    }
  ],
  "bytecode": "0x60806040526040518060400160405280601b81526020017f68747470733a2f2f666c6f79646e66742e636f6d2f746f6b656e2f00000000008152506007908051906020019062000051929190620001f9565b5060006008553480156200006457600080fd5b506040518060400160405280600981526020017f4e46545f434845434b00000000000000000000000000000000000000000000008152506040518060400160405280600381526020017f4e465400000000000000000000000000000000000000000000000000000000008152508160009080519060200190620000e9929190620001f9565b50806001908051906020019062000102929190620001f9565b50505062000125620001196200012b60201b60201c565b6200013360201b60201c565b6200030e565b600033905090565b6000600660009054906101000a900473ffffffffffffffffffffffffffffffffffffffff16905081600660006101000a81548173ffffffffffffffffffffffffffffffffffffffff021916908373ffffffffffffffffffffffffffffffffffffffff1602179055508173ffffffffffffffffffffffffffffffffffffffff168173ffffffffffffffffffffffffffffffffffffffff167f8be0079c531659141344cd1fd0a4f28419497f9722a3daafe3b4186f6b6457e060405160405180910390a35050565b8280546200020790620002a9565b90600052602060002090601f0160209004810192826200022b576000855562000277565b82601f106200024657805160ff191683800117855562000277565b8280016001018555821562000277579182015b828111156200027657825182559160200191906001019062000259565b5b5090506200028691906200028a565b5090565b5b80821115620002a55760008160009055506001016200028b565b5090565b60006002820490506001821680620002c257607f821691505b60208210811415620002d957620002d8620002df565b5b50919050565b7f4e487b7100000000000000000000000000000000000000000000000000000000600052602260045260246000fd5b61308f806200031e6000396000f3fe608060405234801561001057600080fd5b50600436106101375760003560e01c80636c0360eb116100b8578063a22cb4651161007c578063a22cb46514610328578063b88d4fde14610344578063b90306ad14610360578063c87b56dd1461037c578063e985e9c5146103ac578063f2fde38b146103dc57610137565b80636c0360eb1461029457806370a08231146102b2578063715018a6146102e25780638da5cb5b146102ec57806395d89b411461030a57610137565b806323b872dd116100ff57806323b872dd146101f25780632bdf0ab11461020e57806342842e0e1461022c5780634a44f379146102485780636352211e1461026457610137565b806301ffc9a71461013c57806306fdde031461016c578063078837031461018a578063081812fc146101a6578063095ea7b3146101d6575b600080fd5b6101566004803603810190610151919061219b565b6103f8565b60405161016391906129c7565b60405180910390f35b6101746104da565b60405161018191906129e2565b60405180910390f35b6101a4600480360381019061019f919061222e565b61056c565b005b6101c060048036038101906101bb919061222e565b61068b565b6040516101cd9190612960565b60405180910390f35b6101f060048036038101906101eb919061215f565b610710565b005b61020c60048036038101906102079190612059565b610828565b005b610216610888565b6040516102239190612c24565b60405180910390f35b61024660048036038101906102419190612059565b61088e565b005b610262600480360381019061025d91906121ed565b6108ae565b005b61027e6004803603810190610279919061222e565b610944565b60405161028b9190612960565b60405180910390f35b61029c6109f6565b6040516102a991906129e2565b60405180910390f35b6102cc60048036038101906102c79190611ff4565b610a84565b6040516102d99190612c24565b60405180910390f35b6102ea610b3c565b005b6102f4610bc4565b6040516103019190612960565b60405180910390f35b610312610bee565b60405161031f91906129e2565b60405180910390f35b610342600480360381019061033d9190612123565b610c80565b005b61035e600480360381019061035991906120a8565b610e01565b005b61037a6004803603810190610375919061222e565b610e63565b005b6103966004803603810190610391919061222e565b610e6f565b6040516103a391906129e2565b60405180910390f35b6103c660048036038101906103c1919061201d565b610f53565b6040516103d391906129c7565b60405180910390f35b6103f660048036038101906103f19190611ff4565b610fe7565b005b60007f80ac58cd000000000000000000000000000000000000000000000000000000007bffffffffffffffffffffffffffffffffffffffffffffffffffffffff1916827bffffffffffffffffffffffffffffffffffffffffffffffffffffffff191614806104c357507f5b5e139f000000000000000000000000000000000000000000000000000000007bffffffffffffffffffffffffffffffffffffffffffffffffffffffff1916827bffffffffffffffffffffffffffffffffffffffffffffffffffffffff1916145b806104d357506104d2826110df565b5b9050919050565b6060600080546104e990612e84565b80601f016020809104026020016040519081016040528092919081815260200182805461051590612e84565b80156105625780601f1061053757610100808354040283529160200191610562565b820191906000526020600020905b81548152906001019060200180831161054557829003601f168201915b5050505050905090565b610574611149565b73ffffffffffffffffffffffffffffffffffffffff16610592610bc4565b73ffffffffffffffffffffffffffffffffffffffff16146105e8576040517f08c379a00000000000000000000000000000000000000000000000000000000081526004016105df90612b84565b60405180910390fd5b6064816008546105f89190612d13565b10610638576040517f08c379a000000000000000000000000000000000000000000000000000000000815260040161062f90612a64565b60405180910390fd5b60005b818110156106875760016008546106529190612d13565b60088190555061066433600854611151565b6063600854141561067457610687565b808061067f90612eb6565b91505061063b565b5050565b60006106968261116f565b6106d5576040517f08c379a00000000000000000000000000000000000000000000000000000000081526004016106cc90612b64565b60405180910390fd5b6004600083815260200190815260200160002060009054906101000a900473ffffffffffffffffffffffffffffffffffffffff169050919050565b600061071b82610944565b90508073ffffffffffffffffffffffffffffffffffffffff168373ffffffffffffffffffffffffffffffffffffffff16141561078c576040517f08c379a000000000000000000000000000000000000000000000000000000000815260040161078390612be4565b60405180910390fd5b8073ffffffffffffffffffffffffffffffffffffffff166107ab611149565b73ffffffffffffffffffffffffffffffffffffffff1614806107da57506107d9816107d4611149565b610f53565b5b610819576040517f08c379a000000000000000000000000000000000000000000000000000000000815260040161081090612ae4565b60405180910390fd5b61082383836111db565b505050565b610839610833611149565b82611294565b610878576040517f08c379a000000000000000000000000000000000000000000000000000000000815260040161086f90612c04565b60405180910390fd5b610883838383611372565b505050565b60085481565b6108a983838360405180602001604052806000815250610e01565b505050565b6108b6611149565b73ffffffffffffffffffffffffffffffffffffffff166108d4610bc4565b73ffffffffffffffffffffffffffffffffffffffff161461092a576040517f08c379a000000000000000000000000000000000000000000000000000000000815260040161092190612b84565b60405180910390fd5b8060079080519060200190610940929190611e18565b5050565b6000806002600084815260200190815260200160002060009054906101000a900473ffffffffffffffffffffffffffffffffffffffff169050600073ffffffffffffffffffffffffffffffffffffffff168173ffffffffffffffffffffffffffffffffffffffff1614156109ed576040517f08c379a00000000000000000000000000000000000000000000000000000000081526004016109e490612b24565b60405180910390fd5b80915050919050565b60078054610a0390612e84565b80601f0160208091040260200160405190810160405280929190818152602001828054610a2f90612e84565b8015610a7c5780601f10610a5157610100808354040283529160200191610a7c565b820191906000526020600020905b815481529060010190602001808311610a5f57829003601f168201915b505050505081565b60008073ffffffffffffffffffffffffffffffffffffffff168273ffffffffffffffffffffffffffffffffffffffff161415610af5576040517f08c379a0000000000000000000000000000000000000000000000000000000008152600401610aec90612b04565b60405180910390fd5b600360008373ffffffffffffffffffffffffffffffffffffffff1673ffffffffffffffffffffffffffffffffffffffff168152602001908152602001600020549050919050565b610b44611149565b73ffffffffffffffffffffffffffffffffffffffff16610b62610bc4565b73ffffffffffffffffffffffffffffffffffffffff1614610bb8576040517f08c379a0000000000000000000000000000000000000000000000000000000008152600401610baf90612b84565b60405180910390fd5b610bc260006115ce565b565b6000600660009054906101000a900473ffffffffffffffffffffffffffffffffffffffff16905090565b606060018054610bfd90612e84565b80601f0160208091040260200160405190810160405280929190818152602001828054610c2990612e84565b8015610c765780601f10610c4b57610100808354040283529160200191610c76565b820191906000526020600020905b815481529060010190602001808311610c5957829003601f168201915b5050505050905090565b610c88611149565b73ffffffffffffffffffffffffffffffffffffffff168273ffffffffffffffffffffffffffffffffffffffff161415610cf6576040517f08c379a0000000000000000000000000000000000000000000000000000000008152600401610ced90612aa4565b60405180910390fd5b8060056000610d03611149565b73ffffffffffffffffffffffffffffffffffffffff1673ffffffffffffffffffffffffffffffffffffffff16815260200190815260200160002060008473ffffffffffffffffffffffffffffffffffffffff1673ffffffffffffffffffffffffffffffffffffffff16815260200190815260200160002060006101000a81548160ff0219169083151502179055508173ffffffffffffffffffffffffffffffffffffffff16610db0611149565b73ffffffffffffffffffffffffffffffffffffffff167f17307eab39ab6107e8899845ad3d59bd9653f200f220920489ca2b5937696c3183604051610df591906129c7565b60405180910390a35050565b610e12610e0c611149565b83611294565b610e51576040517f08c379a0000000000000000000000000000000000000000000000000000000008152600401610e4890612c04565b60405180910390fd5b610e5d84848484611694565b50505050565b610e6c816116f0565b50565b6060610e7a8261116f565b610eb9576040517f08c379a0000000000000000000000000000000000000000000000000000000008152600401610eb090612bc4565b60405180910390fd5b60006040518060400160405280600581526020017f2e6a736f6e00000000000000000000000000000000000000000000000000000081525090506000610efd611801565b90506000815111610f1d5760405180602001604052806000815250610f4a565b80610f2785611893565b83604051602001610f3a9392919061292f565b6040516020818303038152906040525b92505050919050565b6000600560008473ffffffffffffffffffffffffffffffffffffffff1673ffffffffffffffffffffffffffffffffffffffff16815260200190815260200160002060008373ffffffffffffffffffffffffffffffffffffffff1673ffffffffffffffffffffffffffffffffffffffff16815260200190815260200160002060009054906101000a900460ff16905092915050565b610fef611149565b73ffffffffffffffffffffffffffffffffffffffff1661100d610bc4565b73ffffffffffffffffffffffffffffffffffffffff1614611063576040517f08c379a000000000000000000000000000000000000000000000000000000000815260040161105a90612b84565b60405180910390fd5b600073ffffffffffffffffffffffffffffffffffffffff168173ffffffffffffffffffffffffffffffffffffffff1614156110d3576040517f08c379a00000000000000000000000000000000000000000000000000000000081526004016110ca90612a24565b60405180910390fd5b6110dc816115ce565b50565b60007f01ffc9a7000000000000000000000000000000000000000000000000000000007bffffffffffffffffffffffffffffffffffffffffffffffffffffffff1916827bffffffffffffffffffffffffffffffffffffffffffffffffffffffff1916149050919050565b600033905090565b61116b828260405180602001604052806000815250611a40565b5050565b60008073ffffffffffffffffffffffffffffffffffffffff166002600084815260200190815260200160002060009054906101000a900473ffffffffffffffffffffffffffffffffffffffff1673ffffffffffffffffffffffffffffffffffffffff1614159050919050565b816004600083815260200190815260200160002060006101000a81548173ffffffffffffffffffffffffffffffffffffffff021916908373ffffffffffffffffffffffffffffffffffffffff160217905550808273ffffffffffffffffffffffffffffffffffffffff1661124e83610944565b73ffffffffffffffffffffffffffffffffffffffff167f8c5be1e5ebec7d5bd14f71427d1e84f3dd0314c0f7b2291e5b200ac8c7c3b92560405160405180910390a45050565b600061129f8261116f565b6112de576040517f08c379a00000000000000000000000000000000000000000000000000000000081526004016112d590612ac4565b60405180910390fd5b60006112e983610944565b90508073ffffffffffffffffffffffffffffffffffffffff168473ffffffffffffffffffffffffffffffffffffffff16148061135857508373ffffffffffffffffffffffffffffffffffffffff166113408461068b565b73ffffffffffffffffffffffffffffffffffffffff16145b8061136957506113688185610f53565b5b91505092915050565b8273ffffffffffffffffffffffffffffffffffffffff1661139282610944565b73ffffffffffffffffffffffffffffffffffffffff16146113e8576040517f08c379a00000000000000000000000000000000000000000000000000000000081526004016113df90612ba4565b60405180910390fd5b600073ffffffffffffffffffffffffffffffffffffffff168273ffffffffffffffffffffffffffffffffffffffff161415611458576040517f08c379a000000000000000000000000000000000000000000000000000000000815260040161144f90612a84565b60405180910390fd5b611463838383611a9b565b61146e6000826111db565b6001600360008573ffffffffffffffffffffffffffffffffffffffff1673ffffffffffffffffffffffffffffffffffffffff16815260200190815260200160002060008282546114be9190612d9a565b925050819055506001600360008473ffffffffffffffffffffffffffffffffffffffff1673ffffffffffffffffffffffffffffffffffffffff16815260200190815260200160002060008282546115159190612d13565b92505081905550816002600083815260200190815260200160002060006101000a81548173ffffffffffffffffffffffffffffffffffffffff021916908373ffffffffffffffffffffffffffffffffffffffff160217905550808273ffffffffffffffffffffffffffffffffffffffff168473ffffffffffffffffffffffffffffffffffffffff167fddf252ad1be2c89b69c2b068fc378daa952ba7f163c4a11628f55a4df523b3ef60405160405180910390a4505050565b6000600660009054906101000a900473ffffffffffffffffffffffffffffffffffffffff16905081600660006101000a81548173ffffffffffffffffffffffffffffffffffffffff021916908373ffffffffffffffffffffffffffffffffffffffff1602179055508173ffffffffffffffffffffffffffffffffffffffff168173ffffffffffffffffffffffffffffffffffffffff167f8be0079c531659141344cd1fd0a4f28419497f9722a3daafe3b4186f6b6457e060405160405180910390a35050565b61169f848484611372565b6116ab84848484611aa0565b6116ea576040517f08c379a00000000000000000000000000000000000000000000000000000000081526004016116e190612a04565b60405180910390fd5b50505050565b60006116fb82610944565b905061170981600084611a9b565b6117146000836111db565b6001600360008373ffffffffffffffffffffffffffffffffffffffff1673ffffffffffffffffffffffffffffffffffffffff16815260200190815260200160002060008282546117649190612d9a565b925050819055506002600083815260200190815260200160002060006101000a81549073ffffffffffffffffffffffffffffffffffffffff021916905581600073ffffffffffffffffffffffffffffffffffffffff168273ffffffffffffffffffffffffffffffffffffffff167fddf252ad1be2c89b69c2b068fc378daa952ba7f163c4a11628f55a4df523b3ef60405160405180910390a45050565b60606007805461181090612e84565b80601f016020809104026020016040519081016040528092919081815260200182805461183c90612e84565b80156118895780601f1061185e57610100808354040283529160200191611889565b820191906000526020600020905b81548152906001019060200180831161186c57829003601f168201915b5050505050905090565b606060008214156118db576040518060400160405280600181526020017f30000000000000000000000000000000000000000000000000000000000000008152509050611a3b565b600082905060005b6000821461190d5780806118f690612eb6565b915050600a826119069190612d69565b91506118e3565b60008167ffffffffffffffff81111561194f577f4e487b7100000000000000000000000000000000000000000000000000000000600052604160045260246000fd5b6040519080825280601f01601f1916602001820160405280156119815781602001600182028036833780820191505090505b5090505b60008514611a345760018261199a9190612d9a565b9150600a856119a99190612eff565b60306119b59190612d13565b60f81b8183815181106119f1577f4e487b7100000000000000000000000000000000000000000000000000000000600052603260045260246000fd5b60200101907effffffffffffffffffffffffffffffffffffffffffffffffffffffffffffff1916908160001a905350600a85611a2d9190612d69565b9450611985565b8093505050505b919050565b611a4a8383611c37565b611a576000848484611aa0565b611a96576040517f08c379a0000000000000000000000000000000000000000000000000000000008152600401611a8d90612a04565b60405180910390fd5b505050565b505050565b6000611ac18473ffffffffffffffffffffffffffffffffffffffff16611e05565b15611c2a578373ffffffffffffffffffffffffffffffffffffffff1663150b7a02611aea611149565b8786866040518563ffffffff1660e01b8152600401611b0c949392919061297b565b602060405180830381600087803b158015611b2657600080fd5b505af1925050508015611b5757506040513d601f19601f82011682018060405250810190611b5491906121c4565b60015b611bda573d8060008114611b87576040519150601f19603f3d011682016040523d82523d6000602084013e611b8c565b606091505b50600081511415611bd2576040517f08c379a0000000000000000000000000000000000000000000000000000000008152600401611bc990612a04565b60405180910390fd5b805181602001fd5b63150b7a0260e01b7bffffffffffffffffffffffffffffffffffffffffffffffffffffffff1916817bffffffffffffffffffffffffffffffffffffffffffffffffffffffff191614915050611c2f565b600190505b949350505050565b600073ffffffffffffffffffffffffffffffffffffffff168273ffffffffffffffffffffffffffffffffffffffff161415611ca7576040517f08c379a0000000000000000000000000000000000000000000000000000000008152600401611c9e90612b44565b60405180910390fd5b611cb08161116f565b15611cf0576040517f08c379a0000000000000000000000000000000000000000000000000000000008152600401611ce790612a44565b60405180910390fd5b611cfc60008383611a9b565b6001600360008473ffffffffffffffffffffffffffffffffffffffff1673ffffffffffffffffffffffffffffffffffffffff1681526020019081526020016000206000828254611d4c9190612d13565b92505081905550816002600083815260200190815260200160002060006101000a81548173ffffffffffffffffffffffffffffffffffffffff021916908373ffffffffffffffffffffffffffffffffffffffff160217905550808273ffffffffffffffffffffffffffffffffffffffff16600073ffffffffffffffffffffffffffffffffffffffff167fddf252ad1be2c89b69c2b068fc378daa952ba7f163c4a11628f55a4df523b3ef60405160405180910390a45050565b600080823b905060008111915050919050565b828054611e2490612e84565b90600052602060002090601f016020900481019282611e465760008555611e8d565b82601f10611e5f57805160ff1916838001178555611e8d565b82800160010185558215611e8d579182015b82811115611e8c578251825591602001919060010190611e71565b5b509050611e9a9190611e9e565b5090565b5b80821115611eb7576000816000905550600101611e9f565b5090565b6000611ece611ec984612c70565b612c3f565b905082815260208101848484011115611ee657600080fd5b611ef1848285612e42565b509392505050565b6000611f0c611f0784612ca0565b612c3f565b905082815260208101848484011115611f2457600080fd5b611f2f848285612e42565b509392505050565b600081359050611f4681612ffd565b92915050565b600081359050611f5b81613014565b92915050565b600081359050611f708161302b565b92915050565b600081519050611f858161302b565b92915050565b600082601f830112611f9c57600080fd5b8135611fac848260208601611ebb565b91505092915050565b600082601f830112611fc657600080fd5b8135611fd6848260208601611ef9565b91505092915050565b600081359050611fee81613042565b92915050565b60006020828403121561200657600080fd5b600061201484828501611f37565b91505092915050565b6000806040838503121561203057600080fd5b600061203e85828601611f37565b925050602061204f85828601611f37565b9150509250929050565b60008060006060848603121561206e57600080fd5b600061207c86828701611f37565b935050602061208d86828701611f37565b925050604061209e86828701611fdf565b9150509250925092565b600080600080608085870312156120be57600080fd5b60006120cc87828801611f37565b94505060206120dd87828801611f37565b93505060406120ee87828801611fdf565b925050606085013567ffffffffffffffff81111561210b57600080fd5b61211787828801611f8b565b91505092959194509250565b6000806040838503121561213657600080fd5b600061214485828601611f37565b925050602061215585828601611f4c565b9150509250929050565b6000806040838503121561217257600080fd5b600061218085828601611f37565b925050602061219185828601611fdf565b9150509250929050565b6000602082840312156121ad57600080fd5b60006121bb84828501611f61565b91505092915050565b6000602082840312156121d657600080fd5b60006121e484828501611f76565b91505092915050565b6000602082840312156121ff57600080fd5b600082013567ffffffffffffffff81111561221957600080fd5b61222584828501611fb5565b91505092915050565b60006020828403121561224057600080fd5b600061224e84828501611fdf565b91505092915050565b61226081612dce565b82525050565b61226f81612de0565b82525050565b600061228082612cd0565b61228a8185612ce6565b935061229a818560208601612e51565b6122a381612fec565b840191505092915050565b60006122b982612cdb565b6122c38185612cf7565b93506122d3818560208601612e51565b6122dc81612fec565b840191505092915050565b60006122f282612cdb565b6122fc8185612d08565b935061230c818560208601612e51565b80840191505092915050565b6000612325603283612cf7565b91507f4552433732313a207472616e7366657220746f206e6f6e20455243373231526560008301527f63656976657220696d706c656d656e74657200000000000000000000000000006020830152604082019050919050565b600061238b602683612cf7565b91507f4f776e61626c653a206e6577206f776e657220697320746865207a65726f206160008301527f64647265737300000000000000000000000000000000000000000000000000006020830152604082019050919050565b60006123f1601c83612cf7565b91507f4552433732313a20746f6b656e20616c7265616479206d696e746564000000006000830152602082019050919050565b6000612431601c83612cf7565b91507f4f6e6c792031303020746f6b656e2063616e206265206d696e746564000000006000830152602082019050919050565b6000612471602483612cf7565b91507f4552433732313a207472616e7366657220746f20746865207a65726f2061646460008301527f72657373000000000000000000000000000000000000000000000000000000006020830152604082019050919050565b60006124d7601983612cf7565b91507f4552433732313a20617070726f766520746f2063616c6c6572000000000000006000830152602082019050919050565b6000612517602c83612cf7565b91507f4552433732313a206f70657261746f7220717565727920666f72206e6f6e657860008301527f697374656e7420746f6b656e00000000000000000000000000000000000000006020830152604082019050919050565b600061257d603883612cf7565b91507f4552433732313a20617070726f76652063616c6c6572206973206e6f74206f7760008301527f6e6572206e6f7220617070726f76656420666f7220616c6c00000000000000006020830152604082019050919050565b60006125e3602a83612cf7565b91507f4552433732313a2062616c616e636520717565727920666f7220746865207a6560008301527f726f2061646472657373000000000000000000000000000000000000000000006020830152604082019050919050565b6000612649602983612cf7565b91507f4552433732313a206f776e657220717565727920666f72206e6f6e657869737460008301527f656e7420746f6b656e00000000000000000000000000000000000000000000006020830152604082019050919050565b60006126af602083612cf7565b91507f4552433732313a206d696e7420746f20746865207a65726f20616464726573736000830152602082019050919050565b60006126ef602c83612cf7565b91507f4552433732313a20617070726f76656420717565727920666f72206e6f6e657860008301527f697374656e7420746f6b656e00000000000000000000000000000000000000006020830152604082019050919050565b6000612755602083612cf7565b91507f4f776e61626c653a2063616c6c6572206973206e6f7420746865206f776e65726000830152602082019050919050565b6000612795602983612cf7565b91507f4552433732313a207472616e73666572206f6620746f6b656e2074686174206960008301527f73206e6f74206f776e00000000000000000000000000000000000000000000006020830152604082019050919050565b60006127fb602f83612cf7565b91507f4552433732314d657461646174613a2055524920717565727920666f72206e6f60008301527f6e6578697374656e7420746f6b656e00000000000000000000000000000000006020830152604082019050919050565b6000612861602183612cf7565b91507f4552433732313a20617070726f76616c20746f2063757272656e74206f776e6560008301527f72000000000000000000000000000000000000000000000000000000000000006020830152604082019050919050565b60006128c7603183612cf7565b91507f4552433732313a207472616e736665722063616c6c6572206973206e6f74206f60008301527f776e6572206e6f7220617070726f7665640000000000000000000000000000006020830152604082019050919050565b61292981612e38565b82525050565b600061293b82866122e7565b915061294782856122e7565b915061295382846122e7565b9150819050949350505050565b60006020820190506129756000830184612257565b92915050565b60006080820190506129906000830187612257565b61299d6020830186612257565b6129aa6040830185612920565b81810360608301526129bc8184612275565b905095945050505050565b60006020820190506129dc6000830184612266565b92915050565b600060208201905081810360008301526129fc81846122ae565b905092915050565b60006020820190508181036000830152612a1d81612318565b9050919050565b60006020820190508181036000830152612a3d8161237e565b9050919050565b60006020820190508181036000830152612a5d816123e4565b9050919050565b60006020820190508181036000830152612a7d81612424565b9050919050565b60006020820190508181036000830152612a9d81612464565b9050919050565b60006020820190508181036000830152612abd816124ca565b9050919050565b60006020820190508181036000830152612add8161250a565b9050919050565b60006020820190508181036000830152612afd81612570565b9050919050565b60006020820190508181036000830152612b1d816125d6565b9050919050565b60006020820190508181036000830152612b3d8161263c565b9050919050565b60006020820190508181036000830152612b5d816126a2565b9050919050565b60006020820190508181036000830152612b7d816126e2565b9050919050565b60006020820190508181036000830152612b9d81612748565b9050919050565b60006020820190508181036000830152612bbd81612788565b9050919050565b60006020820190508181036000830152612bdd816127ee565b9050919050565b60006020820190508181036000830152612bfd81612854565b9050919050565b60006020820190508181036000830152612c1d816128ba565b9050919050565b6000602082019050612c396000830184612920565b92915050565b6000604051905081810181811067ffffffffffffffff82111715612c6657612c65612fbd565b5b8060405250919050565b600067ffffffffffffffff821115612c8b57612c8a612fbd565b5b601f19601f8301169050602081019050919050565b600067ffffffffffffffff821115612cbb57612cba612fbd565b5b601f19601f8301169050602081019050919050565b600081519050919050565b600081519050919050565b600082825260208201905092915050565b600082825260208201905092915050565b600081905092915050565b6000612d1e82612e38565b9150612d2983612e38565b9250827fffffffffffffffffffffffffffffffffffffffffffffffffffffffffffffffff03821115612d5e57612d5d612f30565b5b828201905092915050565b6000612d7482612e38565b9150612d7f83612e38565b925082612d8f57612d8e612f5f565b5b828204905092915050565b6000612da582612e38565b9150612db083612e38565b925082821015612dc357612dc2612f30565b5b828203905092915050565b6000612dd982612e18565b9050919050565b60008115159050919050565b60007fffffffff0000000000000000000000000000000000000000000000000000000082169050919050565b600073ffffffffffffffffffffffffffffffffffffffff82169050919050565b6000819050919050565b82818337600083830152505050565b60005b83811015612e6f578082015181840152602081019050612e54565b83811115612e7e576000848401525b50505050565b60006002820490506001821680612e9c57607f821691505b60208210811415612eb057612eaf612f8e565b5b50919050565b6000612ec182612e38565b91507fffffffffffffffffffffffffffffffffffffffffffffffffffffffffffffffff821415612ef457612ef3612f30565b5b600182019050919050565b6000612f0a82612e38565b9150612f1583612e38565b925082612f2557612f24612f5f565b5b828206905092915050565b7f4e487b7100000000000000000000000000000000000000000000000000000000600052601160045260246000fd5b7f4e487b7100000000000000000000000000000000000000000000000000000000600052601260045260246000fd5b7f4e487b7100000000000000000000000000000000000000000000000000000000600052602260045260246000fd5b7f4e487b7100000000000000000000000000000000000000000000000000000000600052604160045260246000fd5b6000601f19601f8301169050919050565b61300681612dce565b811461301157600080fd5b50565b61301d81612de0565b811461302857600080fd5b50565b61303481612dec565b811461303f57600080fd5b50565b61304b81612e38565b811461305657600080fd5b5056fea2646970667358221220c07e0ddaf1e92e9df737a2333a6d6428e3464fa4cfa2446d0330688b817fb3f864736f6c63430008000033",
  "immutableReferences": {},
  "source": "  /**\r\n *Submitted for verification at Etherscan.io on 2021-08-13\r\n*/\r\n\r\n//SPDX-License-Identifier: MIT\r\npragma solidity ^0.8.0;\r\n\r\n\r\ninterface IERC165 {\r\n    \r\n    function supportsInterface(bytes4 interfaceId) external view returns (bool);\r\n}\r\n\r\ninterface IERC721 is IERC165 {\r\n    \r\n    event Transfer(address indexed from, address indexed to, uint256 indexed tokenId);\r\n\r\n    \r\n    event Approval(address indexed owner, address indexed approved, uint256 indexed tokenId);\r\n\r\n    \r\n    event ApprovalForAll(address indexed owner, address indexed operator, bool approved);\r\n\r\n    \r\n    function balanceOf(address owner) external view returns (uint256 balance);\r\n\r\n    \r\n    function ownerOf(uint256 tokenId) external view returns (address owner);\r\n\r\n    \r\n    function safeTransferFrom(\r\n        address from,\r\n        address to,\r\n        uint256 tokenId\r\n    ) external;\r\n\r\n    \r\n    function transferFrom(\r\n        address from,\r\n        address to,\r\n        uint256 tokenId\r\n    ) external;\r\n\r\n    \r\n    function approve(address to, uint256 tokenId) external;\r\n\r\n    \r\n    function getApproved(uint256 tokenId) external view returns (address operator);\r\n\r\n    \r\n    function setApprovalForAll(address operator, bool _approved) external;\r\n\r\n    \r\n    function isApprovedForAll(address owner, address operator) external view returns (bool);\r\n\r\n    \r\n    function safeTransferFrom(\r\n        address from,\r\n        address to,\r\n        uint256 tokenId,\r\n        bytes calldata data\r\n    ) external;\r\n}\r\n\r\ninterface IERC721Receiver {\r\n    \r\n    function onERC721Received(\r\n        address operator,\r\n        address from,\r\n        uint256 tokenId,\r\n        bytes calldata data\r\n    ) external returns (bytes4);\r\n}\r\n\r\ninterface IERC721Metadata is IERC721 {\r\n    \r\n    function name() external view returns (string memory);\r\n\r\n    \r\n    function symbol() external view returns (string memory);\r\n\r\n    \r\n    function tokenURI(uint256 tokenId) external view returns (string memory);\r\n}\r\n\r\nlibrary Address {\r\n    \r\n    function isContract(address account) internal view returns (bool) {\r\n        \r\n        \r\n        \r\n\r\n        uint256 size;\r\n        assembly {\r\n            size := extcodesize(account)\r\n        }\r\n        return size > 0;\r\n    }\r\n\r\n    \r\n    function sendValue(address payable recipient, uint256 amount) internal {\r\n        require(address(this).balance >= amount, \"Address: insufficient balance\");\r\n\r\n        (bool success, ) = recipient.call{value: amount}(\"\");\r\n        require(success, \"Address: unable to send value, recipient may have reverted\");\r\n    }\r\n\r\n    \r\n    function functionCall(address target, bytes memory data) internal returns (bytes memory) {\r\n        return functionCall(target, data, \"Address: low-level call failed\");\r\n    }\r\n\r\n    \r\n    function functionCall(\r\n        address target,\r\n        bytes memory data,\r\n        string memory errorMessage\r\n    ) internal returns (bytes memory) {\r\n        return functionCallWithValue(target, data, 0, errorMessage);\r\n    }\r\n\r\n    \r\n    function functionCallWithValue(\r\n        address target,\r\n        bytes memory data,\r\n        uint256 value\r\n    ) internal returns (bytes memory) {\r\n        return functionCallWithValue(target, data, value, \"Address: low-level call with value failed\");\r\n    }\r\n\r\n    \r\n    function functionCallWithValue(\r\n        address target,\r\n        bytes memory data,\r\n        uint256 value,\r\n        string memory errorMessage\r\n    ) internal returns (bytes memory) {\r\n        require(address(this).balance >= value, \"Address: insufficient balance for call\");\r\n        require(isContract(target), \"Address: call to non-contract\");\r\n\r\n        (bool success, bytes memory returndata) = target.call{value: value}(data);\r\n        return _verifyCallResult(success, returndata, errorMessage);\r\n    }\r\n\r\n    \r\n    function functionStaticCall(address target, bytes memory data) internal view returns (bytes memory) {\r\n        return functionStaticCall(target, data, \"Address: low-level static call failed\");\r\n    }\r\n\r\n    \r\n    function functionStaticCall(\r\n        address target,\r\n        bytes memory data,\r\n        string memory errorMessage\r\n    ) internal view returns (bytes memory) {\r\n        require(isContract(target), \"Address: static call to non-contract\");\r\n\r\n        (bool success, bytes memory returndata) = target.staticcall(data);\r\n        return _verifyCallResult(success, returndata, errorMessage);\r\n    }\r\n\r\n    \r\n    function functionDelegateCall(address target, bytes memory data) internal returns (bytes memory) {\r\n        return functionDelegateCall(target, data, \"Address: low-level delegate call failed\");\r\n    }\r\n\r\n    \r\n    function functionDelegateCall(\r\n        address target,\r\n        bytes memory data,\r\n        string memory errorMessage\r\n    ) internal returns (bytes memory) {\r\n        require(isContract(target), \"Address: delegate call to non-contract\");\r\n\r\n        (bool success, bytes memory returndata) = target.delegatecall(data);\r\n        return _verifyCallResult(success, returndata, errorMessage);\r\n    }\r\n\r\n    function _verifyCallResult(\r\n        bool success,\r\n        bytes memory returndata,\r\n        string memory errorMessage\r\n    ) private pure returns (bytes memory) {\r\n        if (success) {\r\n            return returndata;\r\n        } else {\r\n            \r\n            if (returndata.length > 0) {\r\n                \r\n\r\n                assembly {\r\n                    let returndata_size := mload(returndata)\r\n                    revert(add(32, returndata), returndata_size)\r\n                }\r\n            } else {\r\n                revert(errorMessage);\r\n            }\r\n        }\r\n    }\r\n}\r\n\r\nabstract contract Context {\r\n    function _msgSender() internal view virtual returns (address) {\r\n        return msg.sender;\r\n    }\r\n\r\n    function _msgData() internal view virtual returns (bytes calldata) {\r\n        return msg.data;\r\n    }\r\n}\r\n\r\nlibrary Strings {\r\n    bytes16 private constant _HEX_SYMBOLS = \"0123456789abcdef\";\r\n\r\n    \r\n    function toString(uint256 value) internal pure returns (string memory) {\r\n        \r\n        \r\n\r\n        if (value == 0) {\r\n            return \"0\";\r\n        }\r\n        uint256 temp = value;\r\n        uint256 digits;\r\n        while (temp != 0) {\r\n            digits++;\r\n            temp /= 10;\r\n        }\r\n        bytes memory buffer = new bytes(digits);\r\n        while (value != 0) {\r\n            digits -= 1;\r\n            buffer[digits] = bytes1(uint8(48 + uint256(value % 10)));\r\n            value /= 10;\r\n        }\r\n        return string(buffer);\r\n    }\r\n\r\n    \r\n    function toHexString(uint256 value) internal pure returns (string memory) {\r\n        if (value == 0) {\r\n            return \"0x00\";\r\n        }\r\n        uint256 temp = value;\r\n        uint256 length = 0;\r\n        while (temp != 0) {\r\n            length++;\r\n            temp >>= 8;\r\n        }\r\n        return toHexString(value, length);\r\n    }\r\n\r\n    \r\n    function toHexString(uint256 value, uint256 length) internal pure returns (string memory) {\r\n        bytes memory buffer = new bytes(2 * length + 2);\r\n        buffer[0] = \"0\";\r\n        buffer[1] = \"x\";\r\n        for (uint256 i = 2 * length + 1; i > 1; --i) {\r\n            buffer[i] = _HEX_SYMBOLS[value & 0xf];\r\n            value >>= 4;\r\n        }\r\n        require(value == 0, \"Strings: hex length insufficient\");\r\n        return string(buffer);\r\n    }\r\n}\r\n\r\nabstract contract ERC165 is IERC165 {\r\n    \r\n    function supportsInterface(bytes4 interfaceId) public view virtual override returns (bool) {\r\n        return interfaceId == type(IERC165).interfaceId;\r\n    }\r\n}\r\n\r\ncontract ERC721 is Context, ERC165, IERC721, IERC721Metadata {\r\n    using Address for address;\r\n    using Strings for uint256;\r\n\r\n    \r\n    string private _name;\r\n\r\n    \r\n    string private _symbol;\r\n\r\n    \r\n    mapping(uint256 => address) private _owners;\r\n\r\n    \r\n    mapping(address => uint256) private _balances;\r\n\r\n    \r\n    mapping(uint256 => address) private _tokenApprovals;\r\n\r\n    \r\n    mapping(address => mapping(address => bool)) private _operatorApprovals;\r\n\r\n    \r\n    constructor(string memory name_, string memory symbol_) {\r\n        _name = name_;\r\n        _symbol = symbol_;\r\n    }\r\n\r\n    \r\n    function supportsInterface(bytes4 interfaceId) public view virtual override(ERC165, IERC165) returns (bool) {\r\n        return\r\n            interfaceId == type(IERC721).interfaceId ||\r\n            interfaceId == type(IERC721Metadata).interfaceId ||\r\n            super.supportsInterface(interfaceId);\r\n    }\r\n\r\n    \r\n    function balanceOf(address owner) public view virtual override returns (uint256) {\r\n        require(owner != address(0), \"ERC721: balance query for the zero address\");\r\n        return _balances[owner];\r\n    }\r\n\r\n    \r\n    function ownerOf(uint256 tokenId) public view virtual override returns (address) {\r\n        address owner = _owners[tokenId];\r\n        require(owner != address(0), \"ERC721: owner query for nonexistent token\");\r\n        return owner;\r\n    }\r\n\r\n    \r\n    function name() public view virtual override returns (string memory) {\r\n        return _name;\r\n    }\r\n\r\n    \r\n    function symbol() public view virtual override returns (string memory) {\r\n        return _symbol;\r\n    }\r\n\r\n    \r\n    function tokenURI(uint256 tokenId) public view virtual override returns (string memory) {\r\n        require(_exists(tokenId), \"ERC721Metadata: URI query for nonexistent token\");\r\n        string memory baseExtension=\".json\";\r\n        string memory baseURI = _baseURI();\r\n        return bytes(baseURI).length > 0 ? string(abi.encodePacked(baseURI, tokenId.toString(),baseExtension)) : \"\";\r\n    }\r\n\r\n    \r\n    function _baseURI() internal view virtual returns (string memory) {\r\n        return \"\";\r\n    }\r\n\r\n    \r\n    function approve(address to, uint256 tokenId) public virtual override {\r\n        address owner = ERC721.ownerOf(tokenId);\r\n        require(to != owner, \"ERC721: approval to current owner\");\r\n\r\n        require(\r\n            _msgSender() == owner || isApprovedForAll(owner, _msgSender()),\r\n            \"ERC721: approve caller is not owner nor approved for all\"\r\n        );\r\n\r\n        _approve(to, tokenId);\r\n    }\r\n\r\n    \r\n    function getApproved(uint256 tokenId) public view virtual override returns (address) {\r\n        require(_exists(tokenId), \"ERC721: approved query for nonexistent token\");\r\n\r\n        return _tokenApprovals[tokenId];\r\n    }\r\n\r\n    \r\n    function setApprovalForAll(address operator, bool approved) public virtual override {\r\n        require(operator != _msgSender(), \"ERC721: approve to caller\");\r\n\r\n        _operatorApprovals[_msgSender()][operator] = approved;\r\n        emit ApprovalForAll(_msgSender(), operator, approved);\r\n    }\r\n\r\n    \r\n    function isApprovedForAll(address owner, address operator) public view virtual override returns (bool) {\r\n        return _operatorApprovals[owner][operator];\r\n    }\r\n\r\n    \r\n    function transferFrom(\r\n        address from,\r\n        address to,\r\n        uint256 tokenId\r\n    ) public virtual override {\r\n        \r\n        require(_isApprovedOrOwner(_msgSender(), tokenId), \"ERC721: transfer caller is not owner nor approved\");\r\n\r\n        _transfer(from, to, tokenId);\r\n    }\r\n\r\n    \r\n    function safeTransferFrom(\r\n        address from,\r\n        address to,\r\n        uint256 tokenId\r\n    ) public virtual override {\r\n        safeTransferFrom(from, to, tokenId, \"\");\r\n    }\r\n\r\n    \r\n    function safeTransferFrom(\r\n        address from,\r\n        address to,\r\n        uint256 tokenId,\r\n        bytes memory _data\r\n    ) public virtual override {\r\n        require(_isApprovedOrOwner(_msgSender(), tokenId), \"ERC721: transfer caller is not owner nor approved\");\r\n        _safeTransfer(from, to, tokenId, _data);\r\n    }\r\n\r\n    \r\n    function _safeTransfer(\r\n        address from,\r\n        address to,\r\n        uint256 tokenId,\r\n        bytes memory _data\r\n    ) internal virtual {\r\n        _transfer(from, to, tokenId);\r\n        require(_checkOnERC721Received(from, to, tokenId, _data), \"ERC721: transfer to non ERC721Receiver implementer\");\r\n    }\r\n\r\n    \r\n    function _exists(uint256 tokenId) internal view virtual returns (bool) {\r\n        return _owners[tokenId] != address(0);\r\n    }\r\n\r\n    \r\n    function _isApprovedOrOwner(address spender, uint256 tokenId) internal view virtual returns (bool) {\r\n        require(_exists(tokenId), \"ERC721: operator query for nonexistent token\");\r\n        address owner = ERC721.ownerOf(tokenId);\r\n        return (spender == owner || getApproved(tokenId) == spender || isApprovedForAll(owner, spender));\r\n    }\r\n\r\n    \r\n    function _safeMint(address to, uint256 tokenId) internal virtual {\r\n        _safeMint(to, tokenId, \"\");\r\n    }\r\n\r\n    \r\n    function _safeMint(\r\n        address to,\r\n        uint256 tokenId,\r\n        bytes memory _data\r\n    ) internal virtual {\r\n        _mint(to, tokenId);\r\n        require(\r\n            _checkOnERC721Received(address(0), to, tokenId, _data),\r\n            \"ERC721: transfer to non ERC721Receiver implementer\"\r\n        );\r\n    }\r\n\r\n    \r\n    function _mint(address to, uint256 tokenId) internal virtual {\r\n        require(to != address(0), \"ERC721: mint to the zero address\");\r\n        require(!_exists(tokenId), \"ERC721: token already minted\");\r\n\r\n        _beforeTokenTransfer(address(0), to, tokenId);\r\n\r\n        _balances[to] += 1;\r\n        _owners[tokenId] = to;\r\n\r\n        emit Transfer(address(0), to, tokenId);\r\n    }\r\n\r\n    \r\n    function _burn(uint256 tokenId) internal virtual {\r\n        address owner = ERC721.ownerOf(tokenId);\r\n\r\n        _beforeTokenTransfer(owner, address(0), tokenId);\r\n\r\n        \r\n        _approve(address(0), tokenId);\r\n\r\n        _balances[owner] -= 1;\r\n        delete _owners[tokenId];\r\n\r\n        emit Transfer(owner, address(0), tokenId);\r\n    }\r\n\r\n    \r\n    function _transfer(\r\n        address from,\r\n        address to,\r\n        uint256 tokenId\r\n    ) internal virtual {\r\n        require(ERC721.ownerOf(tokenId) == from, \"ERC721: transfer of token that is not own\");\r\n        require(to != address(0), \"ERC721: transfer to the zero address\");\r\n\r\n        _beforeTokenTransfer(from, to, tokenId);\r\n\r\n        \r\n        _approve(address(0), tokenId);\r\n\r\n        _balances[from] -= 1;\r\n        _balances[to] += 1;\r\n        _owners[tokenId] = to;\r\n\r\n        emit Transfer(from, to, tokenId);\r\n    }\r\n\r\n    \r\n    function _approve(address to, uint256 tokenId) internal virtual {\r\n        _tokenApprovals[tokenId] = to;\r\n        emit Approval(ERC721.ownerOf(tokenId), to, tokenId);\r\n    }\r\n\r\n    \r\n    function _checkOnERC721Received(\r\n        address from,\r\n        address to,\r\n        uint256 tokenId,\r\n        bytes memory _data\r\n    ) private returns (bool) {\r\n        if (to.isContract()) {\r\n            try IERC721Receiver(to).onERC721Received(_msgSender(), from, tokenId, _data) returns (bytes4 retval) {\r\n                return retval == IERC721Receiver(to).onERC721Received.selector;\r\n            } catch (bytes memory reason) {\r\n                if (reason.length == 0) {\r\n                    revert(\"ERC721: transfer to non ERC721Receiver implementer\");\r\n                } else {\r\n                    assembly {\r\n                        revert(add(32, reason), mload(reason))\r\n                    }\r\n                }\r\n            }\r\n        } else {\r\n            return true;\r\n        }\r\n    }\r\n\r\n    \r\n    function _beforeTokenTransfer(\r\n        address from,\r\n        address to,\r\n        uint256 tokenId\r\n    ) internal virtual {}\r\n}\r\n\r\nabstract contract ReentrancyGuard {\r\n    \r\n    \r\n    uint256 private constant _NOT_ENTERED = 1;\r\n    uint256 private constant _ENTERED = 2;\r\n\r\n    uint256 private _status;\r\n\r\n    constructor() {\r\n        _status = _NOT_ENTERED;\r\n    }\r\n\r\n    \r\n    modifier nonReentrant() {\r\n        \r\n        require(_status != _ENTERED, \"ReentrancyGuard: reentrant call\");\r\n\r\n        \r\n        _status = _ENTERED;\r\n\r\n        _;\r\n\r\n        \r\n        \r\n        _status = _NOT_ENTERED;\r\n    }\r\n}\r\n\r\nabstract contract Ownable is Context {\r\n    address private _owner;\r\n\r\n    event OwnershipTransferred(address indexed previousOwner, address indexed newOwner);\r\n\r\n    \r\n    constructor() {\r\n        _setOwner(_msgSender());\r\n    }\r\n\r\n    \r\n    function owner() public view virtual returns (address) {\r\n        return _owner;\r\n    }\r\n\r\n    \r\n    modifier onlyOwner() {\r\n        require(owner() == _msgSender(), \"Ownable: caller is not the owner\");\r\n        _;\r\n    }\r\n\r\n    \r\n    function renounceOwnership() public virtual onlyOwner {\r\n        _setOwner(address(0));\r\n    }\r\n\r\n    \r\n    function transferOwnership(address newOwner) public virtual onlyOwner {\r\n        require(newOwner != address(0), \"Ownable: new owner is the zero address\");\r\n        _setOwner(newOwner);\r\n    }\r\n\r\n    function _setOwner(address newOwner) private {\r\n        address oldOwner = _owner;\r\n        _owner = newOwner;\r\n        emit OwnershipTransferred(oldOwner, newOwner);\r\n    }\r\n}\r\n\r\ncontract NFT721 is ERC721,Ownable{\r\n    // uint256 public Sale_strting_time=block.timestamp+5;\r\n    // 2592000 This is the amount of seconds in 30 days\r\n    // uint256 public Sale_ending_time=Sale_strting_time+2592000;\r\n    string public baseURI=\"https://floydnft.com/token/\";\r\n    // uint256 public Price_of_nft;\r\n     uint256 public lasttokenId=0;\r\n    constructor() ERC721(\"NFT_CHECK\",\"NFT\"){\r\n        //  Price_of_nft=10;   \r\n        }\r\n        function _baseURI() internal view override returns(string memory){\r\n            return baseURI;\r\n        }\r\n        // the owner can set base URI\r\n        function setbaseURI(string memory newbaseURI) external onlyOwner{\r\n        baseURI=newbaseURI;    \r\n        }\r\n        // the owner can set the price of NFT\r\n        // function setPriceNFT(uint256 _price) external onlyOwner{\r\n        //     Price_of_nft=_price;\r\n        // } \r\n        // NFT minting hard limit is 100;\r\n        function _safeMint(address to, uint256 tokenId) internal override {\r\n        _safeMint(to, tokenId, \"\");\r\n    }\r\n    //  function Mint(address _to, uint256 _tokenId) public onlyOwner{\r\n    //     _safeMint(_to, _tokenId);\r\n    // }\r\n    function Burn(uint256 _tokenId) public{\r\n        _burn(_tokenId);\r\n    }\r\n    function Mint(uint256 quantity) external onlyOwner {\r\n        // require(msg.value==Price_of_nft*quantity,\"Value is less then the price\");\r\n          require(lasttokenId+quantity<100,\"Only 100 token can be minted\");\r\n        // user can only buy tokens when the sale is started;\r\n        // require(block.timestamp>=Sale_strting_time,\"Sale is not Started yet\");\r\n        // require(block.timestamp<=Sale_ending_time,\"Sale is Started yet\");\r\n        for(uint256 i=0;i<quantity;i++){\r\n            lasttokenId=lasttokenId+1;\r\n            _safeMint(msg.sender,lasttokenId);\r\n            if(lasttokenId==99){\r\n                break;\r\n            }\r\n        }\r\n        \r\n    }\r\n    \r\n} ",
  "sourcePath": "D:\\NOTES\\Project2_ERC721\\contracts\\NFT721.sol",
  "compiler": {
    "name": "solc",
    "version": "0.8.0+commit.c7dfd78e.Emscripten.clang"
  },
  "schemaVersion": "3.4.3",
  "updatedAt": "2021-10-12T05:05:47.806Z",
  "networkType": "ethereum",
  "devdoc": {
    "kind": "dev",
    "methods": {},
    "version": 1
  },
  "userdoc": {
    "kind": "user",
    "methods": {},
    "version": 1
  }
}